{
  "transactions": [
    {
      "hash": "0x4da402ed61618eb439a77813c4e6c5443efcfe3032d0b0ca026061db7cc3fc59",
      "transactionType": "CALL",
      "contractName": "LinkToken",
      "contractAddress": "0x779877a7b0d9e8603169ddbd7836e478b4624789",
      "function": "transferAndCall(address,uint256,bytes)",
      "arguments": [
        "0x9DdfaCa8183c41ad55329BdeeD9F6A8d53168B1B",
        "3000000000000000000",
        "0xc3461d906db13ab4dfd730ccf9152afb61720eccb41e8f0a00658d472f227291"
      ],
      "transaction": {
        "from": "0x20bf0e797ba2403200dc5399f9b0e5264c8ed045",
        "to": "0x779877a7b0d9e8603169ddbd7836e478b4624789",
        "gas": "0x1603d",
        "value": "0x0",
        "input": "0x4000aea00000000000000000000000009ddfaca8183c41ad55329bdeed9f6a8d53168b1b00000000000000000000000000000000000000000000000029a2241af62c000000000000000000000000000000000000000000000000000000000000000000600000000000000000000000000000000000000000000000000000000000000020c3461d906db13ab4dfd730ccf9152afb61720eccb41e8f0a00658d472f227291",
        "nonce": "0x5c",
        "chainId": "0xaa36a7"
      },
      "additionalContracts": [],
      "isFixedGasLimit": false
    }
  ],
  "receipts": [
    {
      "status": "0x1",
      "cumulativeGasUsed": "0x38eee68",
      "logs": [
        {
          "address": "0x779877a7b0d9e8603169ddbd7836e478b4624789",
          "topics": [
            "0xddf252ad1be2c89b69c2b068fc378daa952ba7f163c4a11628f55a4df523b3ef",
            "0x00000000000000000000000020bf0e797ba2403200dc5399f9b0e5264c8ed045",
            "0x0000000000000000000000009ddfaca8183c41ad55329bdeed9f6a8d53168b1b"
          ],
          "data": "0x00000000000000000000000000000000000000000000000029a2241af62c0000",
          "blockHash": "0x0983400b0cf712612af042569688f243c60aeb007d113875e7a1f7e2de6f1afa",
          "blockNumber": "0x9a5464",
          "blockTimestamp": "0x6974e9e0",
          "transactionHash": "0x4da402ed61618eb439a77813c4e6c5443efcfe3032d0b0ca026061db7cc3fc59",
          "transactionIndex": "0x3e",
          "logIndex": "0x4b",
          "removed": false
        },
        {
          "address": "0x779877a7b0d9e8603169ddbd7836e478b4624789",
          "topics": [
            "0xe19260aff97b920c7df27010903aeb9c8d2be5d310a2c67824cf3f15396e4c16",
            "0x00000000000000000000000020bf0e797ba2403200dc5399f9b0e5264c8ed045",
            "0x0000000000000000000000009ddfaca8183c41ad55329bdeed9f6a8d53168b1b"
          ],
          "data": "0x00000000000000000000000000000000000000000000000029a2241af62c000000000000000000000000000000000000000000000000000000000000000000400000000000000000000000000000000000000000000000000000000000000020c3461d906db13ab4dfd730ccf9152afb61720eccb41e8f0a00658d472f227291",
          "blockHash": "0x0983400b0cf712612af042569688f243c60aeb007d113875e7a1f7e2de6f1afa",
          "blockNumber": "0x9a5464",
          "blockTimestamp": "0x6974e9e0",
          "transactionHash": "0x4da402ed61618eb439a77813c4e6c5443efcfe3032d0b0ca026061db7cc3fc59",
          "transactionIndex": "0x3e",
          "logIndex": "0x4c",
          "removed": false
        },
        {
          "address": "0x9ddfaca8183c41ad55329bdeed9f6a8d53168b1b",
          "topics": [
            "0x1ced9348ff549fceab2ac57cd3a9de38edaaab274b725ee82c23e8fc8c4eec7a",
            "0xc3461d906db13ab4dfd730ccf9152afb61720eccb41e8f0a00658d472f227291"
          ],
          "data": "0x000000000000000000000000000000000000000000000002017a156f47ed1ac40000000000000000000000000000000000000000000000022b1c398a3e191ac4",
          "blockHash": "0x0983400b0cf712612af042569688f243c60aeb007d113875e7a1f7e2de6f1afa",
          "blockNumber": "0x9a5464",
          "blockTimestamp": "0x6974e9e0",
          "transactionHash": "0x4da402ed61618eb439a77813c4e6c5443efcfe3032d0b0ca026061db7cc3fc59",
          "transactionIndex": "0x3e",
          "logIndex": "0x4d",
          "removed": false
        }
      ],
      "logsBloom": "0x00000004000000000000000000000000000000000020000000000000020000100000000000000000000000000000000000000000000000000000000000000000000000000020000000000008000000000000002000000000000020000020000008000000000000000000000000000000000000000000000000000010000040000000000000000000000000010000800000000020000000000000000000000000000000000000000000000000010000000000000000000000000004000000000100000002080000000000000000000000000000000000000100000000040000000010000000000000800000000000000000000000000000000000000000000000",
      "type": "0x2",
      "transactionHash": "0x4da402ed61618eb439a77813c4e6c5443efcfe3032d0b0ca026061db7cc3fc59",
      "transactionIndex": "0x3e",
      "blockHash": "0x0983400b0cf712612af042569688f243c60aeb007d113875e7a1f7e2de6f1afa",
      "blockNumber": "0x9a5464",
      "gasUsed": "0xf0d9",
      "effectiveGasPrice": "0x3b11919c",
      "from": "0x20bf0e797ba2403200dc5399f9b0e5264c8ed045",
      "to": "0x779877a7b0d9e8603169ddbd7836e478b4624789",
      "contractAddress": null
    }
  ],
  "libraries": [],
  "pending": [],
  "returns": {},
  "timestamp": 1769269728150,
  "chain": 11155111,
  "commit": null
}