{
  "transactions": [
    {
      "hash": "0x28af83301a4bddba572d2f9a49b7432e5a3110f039537802654c547723e8c312",
      "transactionType": "CALL",
      "contractName": null,
      "contractAddress": "0x779877a7b0d9e8603169ddbd7836e478b4624789",
      "function": "transferAndCall(address,uint256,bytes)",
      "arguments": [
        "0x9DdfaCa8183c41ad55329BdeeD9F6A8d53168B1B",
        "3000000000000000000",
        "0xc3461d906db13ab4dfd730ccf9152afb61720eccb41e8f0a00658d472f227291"
      ],
      "transaction": {
        "from": "0x20bf0e797ba2403200dc5399f9b0e5264c8ed045",
        "to": "0x779877a7b0d9e8603169ddbd7836e478b4624789",
        "gas": "0x1603d",
        "value": "0x0",
        "input": "0x4000aea00000000000000000000000009ddfaca8183c41ad55329bdeed9f6a8d53168b1b00000000000000000000000000000000000000000000000029a2241af62c000000000000000000000000000000000000000000000000000000000000000000600000000000000000000000000000000000000000000000000000000000000020c3461d906db13ab4dfd730ccf9152afb61720eccb41e8f0a00658d472f227291",
        "nonce": "0x41",
        "chainId": "0xaa36a7"
      },
      "additionalContracts": [],
      "isFixedGasLimit": false
    }
  ],
  "receipts": [
    {
      "status": "0x1",
      "cumulativeGasUsed": "0xb9fb70",
      "logs": [
        {
          "address": "0x779877a7b0d9e8603169ddbd7836e478b4624789",
          "topics": [
            "0xddf252ad1be2c89b69c2b068fc378daa952ba7f163c4a11628f55a4df523b3ef",
            "0x00000000000000000000000020bf0e797ba2403200dc5399f9b0e5264c8ed045",
            "0x0000000000000000000000009ddfaca8183c41ad55329bdeed9f6a8d53168b1b"
          ],
          "data": "0x00000000000000000000000000000000000000000000000029a2241af62c0000",
          "blockHash": "0x2e0bd0c5569fe7bb5e26f29ca8b57990bac4957e835a343a510ae1aaf6c60b49",
          "blockNumber": "0x916ac2",
          "blockTimestamp": "0x6904acd0",
          "transactionHash": "0x28af83301a4bddba572d2f9a49b7432e5a3110f039537802654c547723e8c312",
          "transactionIndex": "0x34",
          "logIndex": "0x53",
          "removed": false
        },
        {
          "address": "0x779877a7b0d9e8603169ddbd7836e478b4624789",
          "topics": [
            "0xe19260aff97b920c7df27010903aeb9c8d2be5d310a2c67824cf3f15396e4c16",
            "0x00000000000000000000000020bf0e797ba2403200dc5399f9b0e5264c8ed045",
            "0x0000000000000000000000009ddfaca8183c41ad55329bdeed9f6a8d53168b1b"
          ],
          "data": "0x00000000000000000000000000000000000000000000000029a2241af62c000000000000000000000000000000000000000000000000000000000000000000400000000000000000000000000000000000000000000000000000000000000020c3461d906db13ab4dfd730ccf9152afb61720eccb41e8f0a00658d472f227291",
          "blockHash": "0x2e0bd0c5569fe7bb5e26f29ca8b57990bac4957e835a343a510ae1aaf6c60b49",
          "blockNumber": "0x916ac2",
          "blockTimestamp": "0x6904acd0",
          "transactionHash": "0x28af83301a4bddba572d2f9a49b7432e5a3110f039537802654c547723e8c312",
          "transactionIndex": "0x34",
          "logIndex": "0x54",
          "removed": false
        },
        {
          "address": "0x9ddfaca8183c41ad55329bdeed9f6a8d53168b1b",
          "topics": [
            "0x1ced9348ff549fceab2ac57cd3a9de38edaaab274b725ee82c23e8fc8c4eec7a",
            "0xc3461d906db13ab4dfd730ccf9152afb61720eccb41e8f0a00658d472f227291"
          ],
          "data": "0x00000000000000000000000000000000000000000000000029a2241af62c000000000000000000000000000000000000000000000000000053444835ec580000",
          "blockHash": "0x2e0bd0c5569fe7bb5e26f29ca8b57990bac4957e835a343a510ae1aaf6c60b49",
          "blockNumber": "0x916ac2",
          "blockTimestamp": "0x6904acd0",
          "transactionHash": "0x28af83301a4bddba572d2f9a49b7432e5a3110f039537802654c547723e8c312",
          "transactionIndex": "0x34",
          "logIndex": "0x55",
          "removed": false
        }
      ],
      "logsBloom": "0x00000004000000000000000000000000000000000020000000000000020000100000000000000000000000000000000000000000000000000000000000000000000000000020000000000008000000000000002000000000000020000020000008000000000000000000000000000000000000000000000000000010000040000000000000000000000000010000800000000020000000000000000000000000000000000000000000000000010000000000000000000000000004000000000100000002080000000000000000000000000000000000000100000000040000000010000000000000800000000000000000000000000000000000000000000000",
      "type": "0x2",
      "transactionHash": "0x28af83301a4bddba572d2f9a49b7432e5a3110f039537802654c547723e8c312",
      "transactionIndex": "0x34",
      "blockHash": "0x2e0bd0c5569fe7bb5e26f29ca8b57990bac4957e835a343a510ae1aaf6c60b49",
      "blockNumber": "0x916ac2",
      "gasUsed": "0xf0d9",
      "effectiveGasPrice": "0xf424a",
      "from": "0x20bf0e797ba2403200dc5399f9b0e5264c8ed045",
      "to": "0x779877a7b0d9e8603169ddbd7836e478b4624789",
      "contractAddress": null
    }
  ],
  "libraries": [],
  "pending": [],
  "returns": {},
  "timestamp": 1761914063961,
  "chain": 11155111,
  "commit": null
}